:100000000C942A000C9447000C9447000C94470071
:100010000C9447000C9447000C9447000C94470044
:100020000C9447000C9447000C9447000C945C041B
:100030000C9447000C9447000C9447000C94470024
:100040000C9476000C9447000C9447000C944700E5
:100050000C94470011241FBECFE5D8E0DEBFCDBF12
:1000600011E0A0E6B0E0E0E8FDE002C005900D92EE
:10007000A034B107D9F711E0A0E4B1E001C01D92AE
:10008000A934B107E1F70E94DE040C94BE060C947B
:100090000000309A319A329A3598379A80E487B9BD
:1000A000089597B1982B97B9369A349BFECF349A1E
:1000B00024B145B1942F80E030E0282B392BC901C1
:1000C0000895982F80914201882379F46115710574
:1000D00061F087B1892B87B981E0809342017093E9
:1000E000410160934001339A369A08951F920F920E
:1000F0000FB60F9211242F933F934F935F936F93FB
:100100007F938F939F93AF93BF93EF93FF93E09170
:100110004001F0914101309721F010924201339853
:100120000995FF91EF91BF91AF919F918F917F9131
:100130006F915F914F913F912F910F900FBE0F9054
:100140001F90189524B135B1C90108959FEF9ABB4E
:1001500097BB87E084BB91BB1BBA18BA15BA12BA19
:100160000895843008F07BC0683008F078C0813092
:1001700029F1813038F0823009F43CC0833009F035
:100180006EC053C0442371F0413009F068C02AB3F7
:1001900081E090E002C0880F991F6A95E2F7282B52
:1001A0002ABB08952AB381E090E002C0880F991F0E
:1001B0006A95E2F7809582238ABB0895442371F003
:1001C000413009F04CC027B381E090E002C0880FB5
:1001D000991F6A95E2F7282B27BB089527B381E082
:1001E00090E002C0880F991F6A95E2F780958223FC
:1001F00087BB0895442369F0413089F524B381E039
:1002000090E002C0880F991F6A95E2F7282B24BB63
:10021000089524B381E090E002C0880F991F6A9589
:10022000E2F78095822384BB0895442369F041302E
:10023000B1F421B381E090E002C0880F991F6A9564
:10024000E2F7282B21BB089521B381E090E002C0A2
:10025000880F991F6A95E2F78095822381BB0895E4
:10026000843008F07BC0683008F078C0813029F114
:10027000813038F0823009F43CC0833009F06EC020
:1002800053C0442371F0413009F068C02BB381E0C2
:1002900090E002C0880F991F6A95E2F7282B2BBBCC
:1002A00008952BB381E090E002C0880F991F6A95F2
:1002B000E2F7809582238BBB0895442371F041308F
:1002C00009F04CC028B381E090E002C0880F991F6C
:1002D0006A95E2F7282B28BB089528B381E090E0C7
:1002E00002C0880F991F6A95E2F78095822388BB28
:1002F0000895442369F0413089F525B381E090E009
:1003000002C0880F991F6A95E2F7282B25BB089534
:1003100025B381E090E002C0880F991F6A95E2F74B
:100320008095822385BB0895442369F04130B1F460
:1003300022B381E090E002C0880F991F6A95E2F72E
:10034000282B22BB089522B381E090E002C0880FE1
:10035000991F6A95E2F78095822382BB08958430C5
:10036000D0F46830C0F4813049F0813028F0823018
:1003700039F0833081F406C089B305C086B303C069
:1003800083B301C080B390E002C0959587956A95CC
:10039000E2F78170089582E00895843080F481301E
:1003A00049F0813028F0823039F0833041F406C0C2
:1003B0006ABB089567BB089564BB089561BB089547
:1003C000843080F4813049F0813028F0823039F077
:1003D000833041F406C06BBB089568BB089565BBCC
:1003E000089562BB0895843088F4813049F08130EB
:1003F00028F0823039F0833049F406C089B308957B
:1004000086B3089583B3089580B3089580E0089576
:100410008FB780688FBF08958FB78F778FBF08958C
:10042000AF92BF92CF92DF92FF920F931F93DF9311
:10043000CF930F92CDB7DEB71982AA24BB2490E4E4
:10044000C92E9CE9D92EF501E850FF4FF08081E0DC
:100450006F2D40E00E94300100E081E060E00E94EA
:10046000AF01882311F410E01AC001E081E061E0DF
:100470000E94AF01882311F411E011C002E081E075
:1004800062E00E94AF01882311F412E008C003E08B
:1004900081E063E00E94AF01882369F413E0C601A4
:1004A0000197F1F781E0602F0E94AF01882321F4CA
:1004B00081E08983F7CF14E081E06F2D41E00E9455
:1004C00030019981913069F4AA0CBB1CAA0CBB1CA9
:1004D000A10EB11CE0E0F1E0AE0EBF1EF50180817F
:1004E00009C00894A11CB11CF4E0AF16B10409F0D6
:1004F000AACF8FEF0F90CF91DF911F910F91FF90B7
:10050000DF90CF90BF90AF9008951F93182F80E099
:1005100062E041E00E94300180E061E040E00E9442
:10052000300182E0612F0E94E00180E060E041E064
:100530000E94300180EA9FE00197F1F780E060E0DF
:1005400040E00E9430011F9108951F93CF93DF93E5
:10055000EC0110E003C00E9485021F5FFE01E10F65
:10056000F11D80818823B9F7DF91CF911F91089504
:10057000AF92BF92CF92DF92EF92FF920F931F93B1
:10058000DF93CF93CDB7DEB7EC970FB6F894DEBF0D
:100590000FBECDBF7B018C0125E1A22EB12CAC0E8C
:1005A000BD1ECC24DD241BC0C801B7012AE030E009
:1005B00040E050E00E946B06F501619371935F018A
:1005C0000894C11CD11CC801B7012AE030E040E00A
:1005D00050E00E946B06C901DA017C018D01E11433
:1005E000F1040105110501F78E010B5E1F4F089400
:1005F000C108D108CC0CDD1C0C0D1D1D83E1C82EDB
:10060000D12CCC0EDD1E7E010894E11CF11C0DC026
:10061000F80180819181B7014AE050E00E948D0687
:10062000C7010E94A502025010400C151D0581F75C
:10063000EC960FB6F894DEBF0FBECDBFCF91DF9121
:100640001F910F91FF90EF90DF90CF90BF90AF90F0
:1006500008951F93182F80E062E040E00E9430016F
:1006600080E061E040E00E94300182E0612F0E9462
:10067000E00180E060E041E00E94300180EA9FE01C
:100680000197F1F780E060E040E00E9430011F91A7
:100690000895882319F0813009F4605C862F805812
:1006A0000E9429030895DF92EF92FF920F931F9308
:1006B000CF93DF938C01F62EE42ED22E862F880F57
:1006C000880F880F805C0E942903C0E0D0E0F80109
:1006D000EC0FFD1F80810E9485022196C830D10554
:1006E000B1F78E2D6D2D0E9449038F2D0E9485023A
:1006F000DF91CF911F910F91FF90EF90DF900895C0
:10070000DF93CF93CDB7DEB7E0970FB6F894DEBF97
:100710000FBECDBFDE011196E8E3F1E088E0019065
:100720000D928150E1F7CE01019660E040E028E0B3
:100730000E945303DE011996E0E3F1E088E00190A6
:100740000D928150E1F7CE01099661E040E027E08B
:100750000E945303DE015196E8E2F1E088E0019047
:100760000D928150E1F7CE01419662E040E026E033
:100770000E945303DE015996E0E2F1E088E0019027
:100780000D928150E1F7CE01499663E040E025E00B
:100790000E945303DE019196E8E1F1E088E00190C8
:1007A0000D928150E1F7CE01819664E040E024E0B3
:1007B0000E945303DE019996E0E1F1E088E00190A8
:1007C0000D928150E1F7CE01899665E040E023E08B
:1007D0000E945303E0960FB6F894DEBF0FBECDBF64
:1007E000CF91DF91089581E00E942903089580E967
:1007F00091E028EC30E0F9013197F1F70197D9F752
:1008000088E30E94290380E991E028EC30E0F901B7
:100810003197F1F70197D9F78CE00E94290380E91D
:1008200091E028EC30E0F9013197F1F70197D9F721
:1008300081E00E94290380E991E028EC30E0F90191
:100840003197F1F70197D9F782E00E94290380E9F7
:1008500091E028EC30E0F9013197F1F70197D9F7F1
:10086000089587EE8ABB80EF87BB9FEF94BB80E340
:1008700081BB1BBA98BB15BA12BA089583B78F7B98
:1008800083BF83B7877F83BF80EC82BF89B78160D6
:1008900089BF83B78B7F83BF83B7826083BF83B7F2
:1008A0008E7F83BF08958CBF0895009721F09093A9
:1008B00046018093450108951F920F920FB60F9243
:1008C00011242F933F934F935F936F937F938F9355
:1008D0009F93AF93BF93EF93FF93E0914501F09106
:1008E0004601309709F00995FF91EF91BF91AF91C3
:1008F0009F918F917F916F915F914F913F912F9138
:100900000F900FBE0F901F9018958FB58E7F8FBDE3
:100910008FB582608FBD8EB588608EBD8EB58061CB
:100920008EBD8FB58F7B8FBD8FB580688FBD8EB527
:100930008B7F8EBD8EB582608EBD8EB58E7F8EBD57
:1009400008959BBD8ABD089597BD86BD0895009703
:1009500021F0909344018093430108958A3591F0EA
:10096000843BF1F0882349F587EE93E09BBD8ABD77
:1009700088E893E128EC30E0F9013197F1F701972D
:10098000D9F708958BED95E09BBD8ABD88E893E18A
:1009900028EC30E0F9013197F1F70197D9F7089584
:1009A0008FEC97E09BBD8ABD88E893E128EC30E0AE
:1009B000F9013197F1F70197D9F708958F929F9236
:1009C000BF92CF92DF92EF92FF920F931F93DF932C
:1009D000CF9300D00F92CDB7DEB70E9485040E945E
:1009E00031040E9449000E943E040E94F7030E94C5
:1009F000080280E061E00E94490380E690E00E94E6
:100A0000A50281E061E00E9449038BE690E00E942C
:100A1000A50280E395E728EC30E0F9013197F1F782
:100A20000197D9F70E94F30386E790E00E94A502A0
:100A300080E197E228EC30E0F9013197F1F7019776
:100A4000D9F70E94F30380E061E00E94490385E842
:100A500090E00E94A5028FE19EE40E94A404BB24C2
:100A60004E010894811C911C38ECC32ED12C84E0DB
:100A700061E376E00E946100E0904701F090480158
:100A800010E00E9410028F3F39F0F401E10FF11DD8
:100A900080830E94850201C011501F5F133088F3CC
:100AA00080E29EE4F6013197F1F70197D9F7898149
:100AB000813309F090C08A81833309F08CC08B8127
:100AC000833309F088C00E94F30380E197E2F601C6
:100AD0003197F1F70197D9F78FE890E00E94A502CE
:100AE00080E065E041E00E94300180E395E7F60197
:100AF0003197F1F70197D9F70E94F3038EE990E05F
:100B00000E94A50280E395E7F6013197F1F701977E
:100B1000D9F70E94F30386EA90E00E94A502B7018C
:100B200080E090E028E833E140E050E00E943806A1
:100B3000DC01CB012AE0B695A795979587952A9574
:100B4000D1F76AE070E00E94570680E090E00E94D2
:100B5000B8028CEA90E00E94A50280E395E7F601D6
:100B60003197F1F70197D9F70E94F30380ED97E0F1
:100B70000E94A10480EB90E00E94A50281E060E069
:100B80000E9449038BEB90E00E94A50285E0E82ECD
:100B9000F12C012D112D81E06DE00E944903C80167
:100BA000B7010E94B80280E197E2F6013197F1F7B0
:100BB0000197D9F70894E108F10801091109EE201D
:100BC00051F788EE93E00E94A10480E065E040E0E8
:100BD0000E9430012BC00E94F30380E197E2F601EE
:100BE0003197F1F70197D9F787EC90E00E94A502C1
:100BF000B39480E395E7F6013197F1F70197D9F7C0
:100C00000E94F30382E0B81619F486ED90E005C067
:100C100081E08B1520F08FED90E00E94A50280E32B
:100C200095E7F6013197F1F70197D9F70E94F303A1
:100C300085E890E00E94A50283E0B81609F017CF7E
:100C40000E94F30389EE90E00E94A50280E066E036
:100C500041E00E94300180E067E041E00E94300105
:100C600006CF0E94A2009093480180934701089507
:100C7000629FD001739FF001829FE00DF11D649F80
:100C8000E00DF11D929FF00D839FF00D749FF00D0C
:100C9000659FF00D9927729FB00DE11DF91F639FAD
:100CA000B00DE11DF91FBD01CF0111240895AA1B4C
:100CB000BB1B51E107C0AA1FBB1FA617B70710F047
:100CC000A61BB70B881F991F5A95A9F78095909579
:100CD000BC01CD010895A1E21A2EAA1BBB1BFD0188
:100CE0000DC0AA1FBB1FEE1FFF1FA217B307E4070B
:100CF000F50720F0A21BB30BE40BF50B661F771F63
:100D0000881F991F1A9469F7609570958095909542
:100D10009B01AC01BD01CF010895FB019F01E89447
:100D20004230C4F04532B4F44A3029F497FB1EF443
:100D3000909581959F4F642F77270E945706805D7D
:100D40008A330CF0895D8193CB010097A1F716F4EB
:100D50005DE251931082C9010C94AE06DC01FC01E6
:100D6000672F71917723E1F7329704C07C916D93DF
:100D700070836291AE17BF07C8F30895F894FFCF50
:100D800057656C636F6D6520546F004F6D61722005
:100D9000486F75736500456E74657220506173739A
:100DA000776F72640050617373776F72643A0050AA
:100DB000617373776F726420526967687400576556
:100DC0006C636F6D650054656D703A0020204300C0
:100DD000446F6F7220436C6F736500416674657277
:100DE0002035207365630050617373776F726420E0
:100DF00057726F6E67004C6173742054727900549F
:100E0000727920416761696E0042757A7A65722055
:100E1000416C6572746564000405060700010203F5
:100E20003132332B3435362D3738392A303D2F4483
:100E30000000010207000000110905031F00000067
:100E4000000001021F000000000000000304081061
:100E5000000007051F000000000001021F00000045
:00000001FF
