:100000000C942A000C9447000C9447000C94470071
:100010000C9447000C9447000C9447000C94470044
:100020000C9447000C9447000C9447000C940F125A
:100030000C9447000C9447000C9447000C94470024
:100040000C9453060C9447000C9447000C94470002
:100050000C94470011241FBECFE5D8E0DEBFCDBF12
:1000600011E0A0E6B0E0E8E7FAE302C005900D92E7
:10007000A834B107D9F711E0A8E4B1E001C01D929E
:10008000A935B107E1F70E9463140C943A1D0C9452
:100090000000EF92FF920F931F937B018C0120E0F1
:1000A00030E040E05FE40E94490388238CF0C801FF
:1000B000B70120E030E040E05FE40E94C1010E940F
:1000C000A9039B01AC01205030404040504806C07D
:1000D000C801B7010E94A9039B01AC01B901CA0183
:1000E0001F910F91FF90EF900895A0E0B0E0EBE733
:1000F000F0E00C94D21CDC012B01FA019C919230AF
:1001000008F439C1EB018881823008F433C194309E
:1001100069F4843009F02FC111969C91119789815F
:10012000981709F428C1A8EFB0E025C1843009F47C
:1001300021C18230A9F4923009F01DC19A01AD01AC
:1001400088E0EA010990AE01E90109929E0181501F
:10015000C1F7E201898111969C918923818308C1AD
:10016000923009F407C112962D903C901397EB0141
:100170008A819B811496AD90BD90CD90DC901797AD
:10018000EC80FD800E811F819101281B390BB90184
:1001900037FF04C066277727621B730B6032710537
:1001A0000CF061C0121613066CF537014801062EDB
:1001B00004C096948794779467940A94D2F721E0C8
:1001C00030E040E050E004C0220F331F441F551FB1
:1001D0006A95D2F721503040404050402E213F21B7
:1001E00040235123211531054105510521F021E01E
:1001F00030E040E050E079018A01E628F72808293C
:1002000019293CC0232BD1F1260E371E350146019A
:10021000062E04C096948794779467940A94D2F734
:1002200021E030E040E050E004C0220F331F441FC3
:10023000551F6A95D2F721503040404050402A2146
:100240003B214C215D21211531054105510521F04E
:1002500021E030E040E050E059016A01A628B728CB
:10026000C828D9280BC0821593052CF01C01AA249C
:10027000BB24650103C0EE24FF24870111969C91E5
:10028000D20111968C91981709F445C0992339F041
:10029000A80197012A193B094C095D0906C0A6016E
:1002A00095012E193F09400B510B57FD08C01182D3
:1002B0003382228224833583468357831DC081E0A5
:1002C00081833382228288279927DC01821B930B4A
:1002D000A40BB50B84839583A683B7830DC0220F2F
:1002E000331F441F551F24833583468357838281E0
:1002F000938101979383828324813581468157813D
:10030000DA01C9010197A109B1098F5F9F4FAF4F72
:10031000BF4328F30BC0918333822282EA0CFB1C7B
:100320000C1D1D1DE482F5820683178383E0808304
:10033000248135814681578157FF1AC0C901AA27F8
:1003400097FDA095BA2F81709070A070B0705695EF
:10035000479537952795822B932BA42BB52B848318
:100360009583A683B7838281938101969383828349
:10037000DF0101C0D201CD01CDB7DEB7E2E10C94BF
:10038000EE1CA0E2B0E0E7ECF1E00C94DE1C698327
:100390007A838B839C832D833E834F835887E9E048
:1003A000EE2EF12CEC0EFD1ECE010196B7010E943F
:1003B000D2048E010F5E1F4FCE010596B8010E9438
:1003C000D2048A8991E089278A8BC701B801AE01DE
:1003D000475E5F4F0E9475000E94FD03A096E6E015
:1003E0000C94FA1CA0E2B0E0E8EFF1E00C94DE1C03
:1003F00069837A838B839C832D833E834F835887C5
:10040000F9E0EF2EF12CEC0EFD1ECE010196B701A6
:100410000E94D2048E010F5E1F4FCE010596B801D7
:100420000E94D204C701B801AE01475E5F4F0E942F
:1004300075000E94FD03A096E6E00C94FA1CA0E271
:10044000B0E0E5E2F2E00C94D21C69837A838B83FE
:100450009C832D833E834F835887CE010196BE0136
:10046000675F7F4F0E94D204CE010596BE016F5E8A
:100470007F4F0E94D2049985923088F0898982301A
:10048000C8F0943019F4823051F404C0843029F457
:10049000923081F488EF90E0C6C0923049F420E0B9
:1004A0009A858A89981321E02A87CE010996BBC0D4
:1004B000823049F420E09A858A89981321E02A8BBA
:1004C000CE014196B0C02D843E844F8458886D88FB
:1004D0007E888F88988CEE24FF248701AA24BB2471
:1004E000650140E050E060E070E0E0E0F0E0C10174
:1004F00081709070892BE9F0E60CF71C081D191D1E
:100500009A01AB012A0D3B1D4C1D5D1D80E090E062
:10051000A0E0B0E0E614F7040805190520F481E036
:1005200090E0A0E0B0E0BA01A901480F591F6A1F8E
:100530007B1FAA0CBB1CCC1CDD1C97FE08C081E0F5
:1005400090E0A0E0B0E0A82AB92ACA2ADB2A3196B6
:10055000E032F10549F0660C771C881C991C569412
:10056000479437942794C3CFFA85EA892B893C892D
:100570008B859C85280F391F2E5F3F4F17C0CA01FE
:1005800081709070892B61F016950795F794E79428
:1005900080E090E0A0E0B0E8E82AF92A0A2B1B2BC3
:1005A00076956795579547952F5F3F4F77FDE7CF36
:1005B0000CC0440F551F661F771F17FD4160EE0CDE
:1005C000FF1C001F111F21503040403090E05907A0
:1005D00090E0690790E4790760F32B8F3C8FDB0193
:1005E000CA018F779070A070B07080349105A1051A
:1005F000B10561F447FD0AC0E114F10401051105DC
:1006000029F0405C5F4F6F4F7F4F40781A8EFE1786
:1006100011F081E08A8F4D8F5E8F6F8F78A383E01A
:10062000898FCE0149960E94FD03A096E2E10C94C9
:10063000EE1CA8E1B0E0EFE1F3E00C94DE1C69836E
:100640007A838B839C832D833E834F83588789E0F5
:10065000E82EF12CEC0EFD1ECE010196B7010E9492
:10066000D2048E010F5E1F4FCE010596B8010E9485
:10067000D2048985823040F08989823028F0C70110
:10068000B8010E944A0501C08FEF6896E6E00C941D
:10069000FA1CA8E1B0E0EFE4F3E00C94DE1C6983FF
:1006A0007A838B839C832D833E834F83588789E095
:1006B000E82EF12CEC0EFD1ECE010196B7010E9432
:1006C000D2048E010F5E1F4FCE010596B8010E9425
:1006D000D2048985823040F08989823028F0C701B0
:1006E000B8010E944A0501C08FEF6896E6E00C94BD
:1006F000FA1CA8E1B0E0EFE7F3E00C94DE1C69839C
:100700007A838B839C832D833E834F83588789E034
:10071000E82EF12CEC0EFD1ECE010196B7010E94D1
:10072000D2048E010F5E1F4FCE010596B8010E94C4
:10073000D2048985823040F08989823028F0C7014F
:10074000B8010E944A0501C081E06896E6E00C9479
:10075000FA1CACE0B0E0EFEAF3E00C94E21C698331
:100760007A838B839C83CE010196BE016B5F7F4FA2
:100770000E94D2048D81823061F1823050F1843048
:1007800021F48E81882351F12EC02F81388537FDC9
:1007900020C06E812F3131051CF06623F9F023C093
:1007A0008EE190E0821B930B29853A854B855C8511
:1007B00004C056954795379527958A95D2F76623B5
:1007C000B1F050954095309521953F4F4F4F5F4F79
:1007D0000EC020E030E040E050E009C02FEF3FEFD6
:1007E0004FEF5FE704C020E030E040E050E8B9019F
:1007F000CA012C96E2E00C94FE1CDF92EF92FF926D
:100800000F931F93FC01E480F58006811781D1804E
:100810008081823048F480E090E0A0E1B0E0E82AF6
:10082000F92A0A2B1B2BA5C0843009F49FC0823003
:1008300021F4EE24FF24870105C0E114F104010531
:10084000110519F4E0E0F0E096C0628173819FEF3A
:10085000623879070CF05BC022E83FEF261B370BAC
:100860002A3131052CF020E030E040E050E02AC091
:10087000B801A701022E04C0769567955795479554
:100880000A94D2F781E090E0A0E0B0E004C0880FC5
:10089000991FAA1FBB1F2A95D2F70197A109B10979
:1008A0008E219F21A023B1230097A105B10521F03E
:1008B00081E090E0A0E0B0E09A01AB01282B392B59
:1008C0004A2B5B2BDA01C9018F779070A070B07052
:1008D00080349105A105B10539F427FF09C0205CDA
:1008E0003F4F4F4F5F4F04C0215C3F4F4F4F5F4F13
:1008F000E0E0F0E02030A0E03A07A0E04A07A0E402
:100900005A0710F0E1E0F0E079018A0127C0603871
:10091000710564F5FB01E158FF4FD801C7018F77DE
:100920009070A070B07080349105A105B10539F4C4
:10093000E7FE0DC080E490E0A0E0B0E004C08FE3EB
:1009400090E0A0E0B0E0E80EF91E0A1F1B1F17FFA1
:1009500005C016950795F794E794319687E01695AC
:100960000795F794E7948A95D1F705C0EE24FF2404
:100970008701EFEFF0E06E2F679566276795902F60
:100980009F77D794DD24D7948E2F8695492F462BB9
:10099000582F5D29B701CA011F910F91FF90EF9069
:1009A000DF900895FC01DB01408151812281622F9B
:1009B0006F7770E0221F2227221F9381892F880FD3
:1009C000822B282F30E0991F9927991F11969C930D
:1009D000119721153105A9F54115510561057105DD
:1009E00011F482E037C082E89FEF13969C938E93B8
:1009F00012979A01AB0167E0220F331F441F551F66
:100A00006A95D1F783E08C930DC0220F331F441FEA
:100A1000551F12968D919C911397019713969C9355
:100A20008E931297203080E0380780E0480780E4FA
:100A3000580758F314962D933D934D935C93179755
:100A400008952F3F310579F4411551056105710570
:100A500019F484E08C93089564FF03C081E08C93C3
:100A600012C01C9210C02F57304013963C932E9307
:100A7000129783E08C9387E0440F551F661F771F02
:100A80008A95D1F7706414964D935D936D937C9322
:100A9000179708951F93DC01FB019C91923008F495
:100AA00047C08081823008F443C0943051F41196DD
:100AB0001C91843099F58181682F70E0611B710968
:100AC0003FC0843021F0923031F48230B9F181811D
:100AD000882389F12DC011961C9111978230F1F075
:100AE00081811817D9F412962D913C911397828128
:100AF00093818217930794F028173907BCF0149656
:100B00008D919D910D90BC91A02D248135814681C0
:100B10005781281739074A075B0718F4112341F05A
:100B20000AC082179307A407B50740F4112319F0F0
:100B300061E070E005C06FEF7FEF02C060E070E041
:100B4000CB011F910895DF93CF930F92CDB7DEB7FE
:100B5000198289818F7789838981806489838981DA
:100B60008F7D8983A6E2B0E0E6E2F0E080818160DB
:100B70008C93A6E2B0E0E6E2F0E0808182608C93A4
:100B8000A6E2B0E0E6E2F0E0808184608C93A6E229
:100B9000B0E0E6E2F0E080818F7D8C93A6E2B0E0E9
:100BA000E6E2F0E0808180688C93E7E2F0E0898102
:100BB00080830F90CF91DF910895DF93CF9300D082
:100BC0000F92CDB7DEB78B83A7E2B0E0E7E2F0E0AB
:100BD00090818B81892B8C93A6E2B0E0E6E2F0E075
:100BE000808180648C93E6E2F0E0808182958F7052
:100BF000882F90E0817090700097A9F3A6E2B0E092
:100C0000E6E2F0E0808180618C93E4E2F0E08081B4
:100C1000282F30E0E5E2F0E08081882F90E0982FE7
:100C20008827822B932B9A83898389819A810F90BD
:100C30000F900F90CF91DF910895DF93CF9300D065
:100C40000F92CDB7DEB789837B836A8380914A0197
:100C5000882319F58A819B810097F9F0A7E2B0E01B
:100C6000E7E2F0E090818981892B8C9381E0809389
:100C70004A018A819B819093490180934801A6E2B1
:100C8000B0E0E6E2F0E0808188608C93A6E2B0E01C
:100C9000E6E2F0E0808180648C930F900F900F90DB
:100CA000CF91DF9108951F920F920FB60F921124EA
:100CB0002F933F934F935F936F937F938F939F9364
:100CC000AF93BF93EF93FF93DF93CF93CDB7DEB78F
:100CD0008091480190914901009771F010924A016A
:100CE000A6E2B0E0E6E2F0E08081877F8C93E091BD
:100CF0004801F09149010995CF91DF91FF91EF9162
:100D0000BF91AF919F918F917F916F915F914F9123
:100D10003F912F910F900FBE0F901F901895DF936A
:100D2000CF93CDB7DEB7E4E2F0E080819181CF913F
:100D3000DF910895DF93CF93CDB7DEB7EAE3F0E01C
:100D40008FEF8083E7E3F0E08FEF8083E4E3F0E070
:100D500087E08083E1E3F0E08FEF8083EBE3F0E076
:100D60001082E8E3F0E01082E5E3F0E01082E2E3D5
:100D7000F0E01082CF91DF910895DF93CF93CDB74C
:100D8000DEB72D970FB6F894DEBF0FBECDBF8983B7
:100D90006A834B838981843008F004C18A8188305A
:100DA00008F000C18981282F30E03D872C878C8591
:100DB0009D858130910509F44FC02C853D852230F9
:100DC00031052CF48C859D85009771F0EBC02C8546
:100DD0003D852230310509F477C08C859D858330AF
:100DE000910509F4A9C0DEC08B81282F30E03B8734
:100DF0002A878A859B850097D1F02A853B852130FB
:100E0000310509F0CFC0AAE3B0E0EAE3F0E0808169
:100E1000482F8A81282F30E081E090E0022E02C026
:100E2000880F991F0A94E2F7842B8C93BBC0AAE326
:100E3000B0E0EAE3F0E08081482F8A81282F30E09B
:100E400081E090E0022E02C0880F991F0A94E2F719
:100E5000809584238C93A6C08B81282F30E039871E
:100E60002887888599850097D1F028853985213094
:100E7000310509F097C0A7E3B0E0E7E3F0E0808137
:100E8000482F8A81282F30E081E090E0022E02C0B6
:100E9000880F991F0A94E2F7842B8C9383C0A7E3F1
:100EA000B0E0E7E3F0E08081482F8A81282F30E02E
:100EB00081E090E0022E02C0880F991F0A94E2F7A9
:100EC000809584238C936EC08B81282F30E03F83E4
:100ED0002E838E819F810097D1F02E813F8121301A
:100EE000310509F05FC0A4E3B0E0E4E3F0E0808105
:100EF000482F8A81282F30E081E090E0022E02C046
:100F0000880F991F0A94E2F7842B8C934BC0A4E3BB
:100F1000B0E0E4E3F0E08081482F8A81282F30E0C0
:100F200081E090E0022E02C0880F991F0A94E2F738
:100F3000809584238C9336C08B81282F30E03D83AD
:100F40002C838C819D810097C9F02C813D812130BB
:100F5000310541F5A1E3B0E0E1E3F0E08081482F05
:100F60008A81282F30E081E090E0022E02C0880FB5
:100F7000991F0A94E2F7842B8C9314C0A1E3B0E08C
:100F8000E1E3F0E08081482F8A81282F30E081E082
:100F900090E0022E02C0880F991F0A94E2F7809514
:100FA00084238C932D960FB6F894DEBF0FBECDBF71
:100FB000CF91DF910895DF93CF93CDB7DEB72D9713
:100FC0000FB6F894DEBF0FBECDBF89836A834B8313
:100FD0008981843008F004C18A81883008F000C11A
:100FE0008981282F30E03D872C878C859D85813035
:100FF000910509F44FC02C853D85223031052CF434
:101000008C859D85009771F0EBC02C853D85223045
:10101000310509F477C08C859D858330910509F4ED
:10102000A9C0DEC08B81282F30E03B872A878A85C4
:101030009B850097D1F02A853B852130310509F049
:10104000CFC0ABE3B0E0EBE3F0E08081482F8A81D2
:10105000282F30E081E090E0022E02C0880F991F17
:101060000A94E2F7842B8C93BBC0ABE3B0E0EBE3D4
:10107000F0E08081482F8A81282F30E081E090E0E5
:10108000022E02C0880F991F0A94E2F780958423EC
:101090008C93A6C08B81282F30E0398728878885DC
:1010A00099850097D1F0288539852130310509F0DF
:1010B00097C0A8E3B0E0E8E3F0E08081482F8A81A0
:1010C000282F30E081E090E0022E02C0880F991FA7
:1010D0000A94E2F7842B8C9383C0A8E3B0E0E8E3A2
:1010E000F0E08081482F8A81282F30E081E090E075
:1010F000022E02C0880F991F0A94E2F7809584237C
:101100008C936EC08B81282F30E03F832E838E819D
:101110009F810097D1F02E813F812130310509F068
:101120005FC0A5E3B0E0E5E3F0E08081482F8A816D
:10113000282F30E081E090E0022E02C0880F991F36
:101140000A94E2F7842B8C934BC0A5E3B0E0E5E36F
:10115000F0E08081482F8A81282F30E081E090E004
:10116000022E02C0880F991F0A94E2F7809584230B
:101170008C9336C08B81282F30E03D832C838C816B
:101180009D810097C9F02C813D812130310541F5C9
:10119000A2E3B0E0E2E3F0E08081482F8A81282FCB
:1011A00030E081E090E0022E02C0880F991F0A947F
:1011B000E2F7842B8C9314C0A2E3B0E0E2E3F0E00A
:1011C0008081482F8A81282F30E081E090E0022E34
:1011D00002C0880F991F0A94E2F7809584238C93AC
:1011E0002D960FB6F894DEBF0FBECDBFCF91DF9125
:1011F0000895DF93CF9300D000D00F92CDB7DEB724
:101200008A836B8382E089838A81843008F06BC093
:101210008B81883008F067C08A81282F30E03D83B9
:101220002C834C815D814130510541F18C819D8140
:101230008230910534F42C813D812115310561F016
:1012400052C04C815D814230510551F18C819D81AC
:1012500083309105B9F147C0E9E3F0E08081282FA0
:1012600030E08B81882F90E0A90102C05595479509
:101270008A95E2F7CA018170898335C0E6E3F0E020
:101280008081282F30E08B81882F90E0A90102C057
:10129000559547958A95E2F7CA018170898323C0E5
:1012A000E3E3F0E08081282F30E08B81882F90E00D
:1012B000A90102C0559547958A95E2F7CA01817048
:1012C000898311C0E0E3F0E08081282F30E08B813A
:1012D000882F90E0A90102C0559547958A95E2F7BD
:1012E000CA018170898389810F900F900F900F90B0
:1012F0000F90CF91DF910895DF93CF9300D000D06E
:10130000CDB7DEB789836A838981843090F589817E
:10131000282F30E03C832B838B819C818130910589
:10132000D1F02B813C81223031052CF48B819C81C2
:10133000009761F01EC02B813C812230310581F085
:101340008B819C818330910581F013C0EAE3F0E04A
:101350008A8180830EC0E7E3F0E08A81808309C040
:10136000E4E3F0E08A81808304C0E1E3F0E08A8175
:1013700080830F900F900F900F90CF91DF91089581
:10138000DF93CF9300D000D0CDB7DEB789836A83D7
:101390008981843090F58981282F30E03C832B832C
:1013A0008B819C8181309105D1F02B813C81223051
:1013B00031052CF48B819C81009761F01EC02B813C
:1013C0003C812230310581F08B819C8183309105F5
:1013D00081F013C0EBE3F0E08A8180830EC0E8E384
:1013E000F0E08A81808309C0E5E3F0E08A818083B0
:1013F00004C0E2E3F0E08A8180830F900F900F90A9
:101400000F90CF91DF910895DF93CF9300D000D05C
:10141000CDB7DEB78A8319828A81843090F58A81BC
:10142000282F30E03C832B838B819C818130910578
:10143000D1F02B813C81223031052CF48B819C81B1
:10144000009761F01EC02B813C812230310581F074
:101450008B819C818330910581F013C0E9E3F0E03A
:10146000808189830EC0E6E3F0E08081898309C032
:10147000E3E3F0E08081898304C0E0E3F0E0808171
:10148000898389810F900F900F900F90CF91DF91FA
:101490000895DF93CF93CDB7DEB7AFE5B0E0EFE5CA
:1014A000F0E0808180688C93CF91DF910895DF9385
:1014B000CF93CDB7DEB7AFE5B0E0EFE5F0E08081E8
:1014C0008F778C93CF91DF910895DF93CF93CDB732
:1014D000DEB762970FB6F894DEBF0FBECDBF1F8692
:1014E000198ACBC08989882F90E0FC01E050FF4F1A
:1014F000908181E0692F40E00E94DB07188A94C048
:101500008889882F90E0FC01EC5FFE4F908181E09C
:10151000692F0E94F908882309F083C080E090E0D9
:10152000A0EAB1E48B879C87AD87BE876B857C85FD
:101530008D859E8520E030E04AEF54E40E941F0232
:10154000DC01CB018F839887A987BA876F81788563
:1015500089859A8520E030E040E85FE30E947903C6
:1015600088232CF481E090E09E838D833FC06F81BF
:10157000788589859A8520E03FEF4FE757E40E9400
:10158000190318164CF56B857C858D859E8520E0AA
:1015900030E040E251E40E941F02DC01CB01BC01BB
:1015A000CD010E944900DC01CB019E838D830FC0D9
:1015B00088EC90E09C838B838B819C810197F1F771
:1015C0009C838B838D819E8101979E838D838D81EA
:1015D0009E81009769F717C06F81788589859A8504
:1015E0000E944900DC01CB019E838D838D819E8109
:1015F0009A83898389819A810197F1F79A838983F4
:1016000002C081E08F878889882F90E0FC01EC5F21
:10161000FE4F908181E0692F0E94F908882389F3A9
:1016200007C088898F5F888B8889843008F468CFE9
:101630008989882F90E0FC01E050FF4F908181E084
:10164000692F41E00E94DB078F85813099F48989F9
:10165000482F50E08889282F30E0CA01880F991F51
:10166000880F991F820F931FFC01E85FFE4F808156
:101670008A8B09C089898F5F898B8989843008F4B6
:1016800031CF8FEF8A8B8A8962960FB6F894DEBFCE
:101690000FBECDBFCF91DF910895DF93CF9300D0E0
:1016A00000D0CDB7DEB79C838B83EB81FC8180813A
:1016B000813379F48B819C81FC0131968081823366
:1016C00041F4EB81FC818081833319F481E08A83CA
:1016D00001C01A828A81898389810F900F900F90AF
:1016E0000F90CF91DF910895DF93CF93CDB7DEB701
:1016F0002F970FB6F894DEBF0FBECDBF8F8780E067
:1017000062E040E00E94DB0780E061E040E00E9490
:10171000DB0782E06F850E94C00980E060E041E065
:101720000E94DB0780E090E0A0E0B0E48B879C871C
:10173000AD87BE876B857C858D859E8520E030E0FA
:101740004AEF54E40E941F02DC01CB018F8398878B
:10175000A987BA876F81788589859A8520E030E0EE
:1017600040E85FE30E94790388232CF481E090E055
:101770009E838D833FC06F81788589859A8520E01F
:101780003FEF4FE757E40E94190318164CF56B859D
:101790007C858D859E8520E030E040E251E40E940A
:1017A0001F02DC01CB01BC01CD010E944900DC011C
:1017B000CB019E838D830FC088EC90E09C838B834C
:1017C0008B819C810197F1F79C838B838D819E8116
:1017D00001979E838D838D819E81009769F714C048
:1017E0006F81788589859A850E944900DC01CB014B
:1017F0009E838D838D819E819A83898389819A813D
:101800000197F1F79A83898380E060E040E00E94CD
:10181000DB072F960FB6F894DEBF0FBECDBFCF917A
:10182000DF910895DF93CF93CDB7DEB72F970FB633
:10183000F894DEBF0FBECDBF8F8780E062E041E04D
:101840000E94DB0780E061E040E00E94DB0782E06D
:101850006F850E94C00980E060E041E00E94DB07E4
:1018600080E090E0A0E0B0E48B879C87AD87BE87E6
:101870006B857C858D859E8520E030E04AEF54E4C1
:101880000E941F02DC01CB018F839887A987BA874A
:101890006F81788589859A8520E030E040E85FE3B4
:1018A0000E94790388232CF481E090E09E838D834D
:1018B0003FC06F81788589859A8520E03FEF4FE7AB
:1018C00057E40E94190318164CF56B857C858D85AD
:1018D0009E8520E030E040E251E40E941F02DC01DE
:1018E000CB01BC01CD010E944900DC01CB019E83EC
:1018F0008D830FC088EC90E09C838B838B819C81CF
:101900000197F1F79C838B838D819E8101979E8344
:101910008D838D819E81009769F714C06F817885D2
:1019200089859A850E944900DC01CB019E838D83C5
:101930008D819E819A83898389819A810197F1F7AC
:101940009A83898380E060E040E00E94DB072F9665
:101950000FB6F894DEBF0FBECDBFCF91DF910895D3
:101960000F931F93DF93CF93CDB7DEB7C654D0400C
:101970000FB6F894DEBF0FBECDBFFE01ED5BFF4F8B
:1019800080E090E0A0E2B2E480839183A283B383FD
:101990008E01015C1F4FFE01ED5BFF4F6081718185
:1019A0008281938120E030E04AEF54E40E941F02DC
:1019B000DC01CB01F80180839183A283B383FE0114
:1019C000FF96608171818281938120E030E040E860
:1019D0005FE30E94790388232CF481E090E09EAFBE
:1019E0008DAF46C0FE01FF96608171818281938137
:1019F00020E03FEF4FE757E40E941903181664F503
:101A0000FE01ED5BFF4F608171818281938120E057
:101A100030E040E251E40E941F02DC01CB01BC0136
:101A2000CD010E944900DC01CB019EAF8DAF0FC0FC
:101A300088EC90E09CAF8BAF8BAD9CAD0197F1F73C
:101A40009CAF8BAF8DAD9EAD01979EAF8DAF8DAD31
:101A50009EAD009769F716C0FE01FF966081718107
:101A6000828193810E944900DC01CB019EAF8DAF42
:101A70008DAD9EAD9AAF89AF89AD9AAD0197F1F763
:101A80009AAF89AF88E30E94740B80E090E0A0E2F7
:101A9000B2E48DAB9EABAFABB8AF6DA97EA98FA9F9
:101AA00098AD20E030E04AEF54E40E941F02DC01D0
:101AB000CB0189AB9AABABABBCAB69A97AA98BA9BB
:101AC0009CA920E030E040E85FE30E94790388238E
:101AD0002CF481E090E098AB8FA73FC069A97AA968
:101AE0008BA99CA920E03FEF4FE757E40E94190320
:101AF00018164CF56DA97EA98FA998AD20E030E0AD
:101B000040E251E40E941F02DC01CB01BC01CD0187
:101B10000E944900DC01CB0198AB8FA70FC088EC75
:101B200090E09EA78DA78DA59EA50197F1F79EA792
:101B30008DA78FA598A9019798AB8FA78FA598A976
:101B4000009769F714C069A97AA98BA99CA90E947A
:101B50004900DC01CB0198AB8FA78FA598A99CA762
:101B60008BA78BA59CA50197F1F79CA78BA78CE071
:101B70000E94740B80E090E0A0E2B2E48FA398A7EB
:101B8000A9A7BAA76FA178A589A59AA520E030E0FA
:101B90004AEF54E40E941F02DC01CB018BA39CA3FB
:101BA000ADA3BEA36BA17CA18DA19EA120E030E0DE
:101BB00040E85FE30E94790388232CF481E090E001
:101BC0009AA389A33FC06BA17CA18DA19EA120E017
:101BD0003FEF4FE757E40E94190318164CF56FA129
:101BE00078A589A59AA520E030E040E251E40E9462
:101BF0001F02DC01CB01BC01CD010E944900DC01C8
:101C0000CB019AA389A30FC088EC90E098A38F8F93
:101C10008F8D98A10197F1F798A38F8F89A19AA131
:101C200001979AA389A389A19AA1009769F714C083
:101C30006BA17CA18DA19EA10E944900DC01CB017A
:101C40009AA389A389A19AA19E8F8D8F8D8D9E8D38
:101C50000197F1F79E8F8D8F81E00E94740B80E0D9
:101C600090E0A0E2B2E4898F9A8FAB8FBC8F698D30
:101C70007A8D8B8D9C8D20E030E04AEF54E40E94F9
:101C80001F02DC01CB018D8B9E8BAF8BB88F6D89D2
:101C90007E898F89988D20E030E040E85FE30E94E4
:101CA000790388232CF481E090E09C8B8B8B3FC0E0
:101CB0006D897E898F89988D20E03FEF4FE757E44B
:101CC0000E94190318164CF5698D7A8D8B8D9C8DA9
:101CD00020E030E040E251E40E941F02DC01CB0131
:101CE000BC01CD010E944900DC01CB019C8B8B8B98
:101CF0000FC088EC90E09A8B898B89899A8901972B
:101D0000F1F79A8B898B8B899C8901979C8B8B8BA4
:101D10008B899C89009769F714C06D897E898F89AA
:101D2000988D0E944900DC01CB019C8B8B8B8B89A9
:101D30009C89988B8F878F8598890197F1F7988B6D
:101D40008F8782E00E94740B80E090E0A0E2B2E412
:101D50008B879C87AD87BE876B857C858D859E85AF
:101D600020E030E04AEF54E40E941F02DC01CB0186
:101D70008F839887A987BA876F81788589859A85A7
:101D800020E030E040E85FE30E94790388232CF4F0
:101D900081E090E09E838D833FC06F817885898547
:101DA0009A8520E03FEF4FE757E40E941903181689
:101DB0004CF56B857C858D859E8520E030E040E28A
:101DC00051E40E941F02DC01CB01BC01CD010E9445
:101DD0004900DC01CB019E838D830FC088EC90E02D
:101DE0009C838B838B819C810197F1F79C838B83F0
:101DF0008D819E8101979E838D838D819E81009729
:101E000069F714C06F81788589859A850E94490099
:101E1000DC01CB019E838D838D819E819A83898392
:101E200089819A810197F1F79A838983CA5BDF4F91
:101E30000FB6F894DEBF0FBECDBFCF91DF911F91DB
:101E40000F910895DF93CF9300D00F92CDB7DEB7F7
:101E50009B838A8319820EC08981282F30E08A8172
:101E60009B81FC01E20FF31F80810E94120C89818B
:101E70008F5F89838981282F30E08A819B81FC01D3
:101E8000E20FF31F8081882339F70F900F900F9096
:101E9000CF91DF910895DF93CF93CDB7DEB781E087
:101EA0000E94740BCF91DF910895DF93CF9300D000
:101EB0000F92CDB7DEB78A836B838A81882319F4AA
:101EC0008B81898306C08A81813019F48B81805C83
:101ED0008983898180580E94740B0F900F900F9016
:101EE000CF91DF910895DF93CF93CDB7DEB72797DA
:101EF0000FB6F894DEBF0FBECDBF9C838B836D837E
:101F00004E832F831A828D81882F90E0880F991F2E
:101F1000880F991F880F991F8A838A81805C0E948D
:101F2000740B19820EC08981282F30E08B819C812F
:101F3000FC01E20FF31F80810E94120C89818F5FE8
:101F400089838981883078F38E816F810E94550F53
:101F50008D810E94120C27960FB6F894DEBF0FBE3B
:101F6000CDBFCF91DF910895DF93CF93CDB7DEB78B
:101F7000CE54D0400FB6F894DEBF0FBECDBFCE0119
:101F800001969AAB89ABE0E4F1E0FCABEBABF8E097
:101F9000FDABEBA9FCA900808BA99CA901969CAB89
:101FA0008BABE9A9FAA9008289A99AA901969AABF3
:101FB00089AB9DA991509DABEDA9EE2351F7CE01C0
:101FC000019660E040E028E00E94730FCE01099680
:101FD0009FAB8EABE8E3F1E0F9AFE8AFF8E0FAAF22
:101FE000E8ADF9AD008088AD99AD019699AF88AFA5
:101FF000EEA9FFA900828EA99FA901969FAB8EAB87
:102000009AAD91509AAFEAADEE2351F7CE01099601
:1020100061E040E027E00E94730FCE0141969CAF43
:102020008BAFE0E3F1E0FEAFEDAFF8E0FFAFEDAD79
:10203000FEAD00808DAD9EAD01969EAF8DAFEBAD38
:10204000FCAD00828BAD9CAD01969CAF8BAF9FAD7C
:1020500091509FAFEFADEE2351F7CE01419662E074
:1020600040E026E00E94730FCE01499622969FAF72
:102070008EAF2297E8E2F1E02496FFAFEEAF24970F
:10208000F8E02596FFAF25972496EEADFFAD249797
:10209000008024968EAD9FAD2497019624969FAF25
:1020A0008EAF24972296EEADFFAD22970082229646
:1020B0008EAD9FAD2297019622969FAF8EAF22974D
:1020C00025969FAD2597915025969FAF25972596EC
:1020D000EFAD2597EE23C1F6CE01499663E040E0CF
:1020E00025E00E94730FCE01819627969FAF8EAF99
:1020F0002797E0E2F1E02996FFAFEEAF2997F8E0ED
:102100002A96FFAF2A972996EEADFFAD299700805A
:1021100029968EAD9FAD2997019629969FAF8EAFD8
:1021200029972796EEADFFAD2797008227968EADB3
:102130009FAD2797019627969FAF8EAF27972A9638
:102140009FAD2A9791502A969FAF2A972A96EFAD76
:102150002A97EE23C1F6CE01819664E040E024E0A8
:102160000E94730FCE0189962C969FAF8EAF2C974D
:10217000E8E1F1E02E96FFAFEEAF2E97F8E02F9654
:10218000FFAF2F972E96EEADFFAD2E9700802E96C7
:102190008EAD9FAD2E9701962E969FAF8EAF2E9748
:1021A0002C96EEADFFAD2C9700822C968EAD9FAD98
:1021B0002C9701962C969FAF8EAF2C972F969FADA4
:1021C0002F9791502F969FAF2F972F96EFAD2F9768
:1021D000EE23C1F6CE01899665E040E023E00E943F
:1021E000730FC25BDF4F0FB6F894DEBF0FBECDBFDB
:1021F000CF91DF9108950F931F93DF93CF93CDB7C6
:10220000DEB7C654D0400FB6F894DEBF0FBECDBFC8
:10221000FE01ED5BFF4F60837183828393831E8297
:102220001D8240C0FE01ED5BFF4F80819181A28144
:10223000B3812AE030E040E050E0BC01CD010E94D3
:10224000B01CDC01CB019A8389838D819E819C0126
:10225000220F331FCE010196820F931FFC01369689
:1022600089819A81918380838D819E8101969E834D
:102270008D838E010D5B1F4FFE01ED5BFF4F808153
:102280009181A281B3812AE030E040E050E0BC01BE
:10229000CD010E94B01CDA01C901F801808391834D
:1022A000A283B383FE01ED5BFF4F80819181A28108
:1022B000B3810097A105B10509F0B4CF8D819E814E
:1022C00001979C838B831EC08B819C819C01220F74
:1022D000331FCE010196820F931FFC013696808139
:1022E00091819E01215D3F4FB9014AE050E00E947B
:1022F000091DCE018F960E94220F8B819C81019730
:102300009C838B838B819C819923F4F6CA5BDF4F7E
:102310000FB6F894DEBF0FBECDBFCF91DF911F91F6
:102320000F910895DF93CF93CDB7DEB7EAE3F0E0E6
:1023300087EE8083E7E3F0E080EF8083E4E3F0E082
:102340008FEF8083E1E3F0E080E38083EBE3F0E074
:102350001082E8E3F0E08FEF8083E5E3F0E01082A5
:10236000E2E3F0E01082CF91DF910895DF93CF9305
:10237000CDB7DEB7A3E5B0E0E3E5F0E080818F7B89
:102380008C93A3E5B0E0E3E5F0E08081877F8C9358
:10239000E2E5F0E080EC8083A9E5B0E0E9E5F0E07B
:1023A000808181608C93A3E5B0E0E3E5F0E080817B
:1023B0008B7F8C93A3E5B0E0E3E5F0E08081826061
:1023C0008C93A3E5B0E0E3E5F0E080818E7F8C9311
:1023D000CF91DF910895DF93CF930F92CDB7DEB702
:1023E0008983ECE5F0E0898180830F90CF91DF91C4
:1023F0000895DF93CF9300D0CDB7DEB79A8389835A
:1024000089819A81009731F089819A8190934D0159
:1024100080934C010F900F90CF91DF9108951F9200
:102420000F920FB60F9211242F933F934F935F9308
:102430006F937F938F939F93AF93BF93EF93FF938C
:10244000DF93CF93CDB7DEB780914C0190914D01D2
:10245000009729F0E0914C01F0914D010995CF9141
:10246000DF91FF91EF91BF91AF919F918F917F91FC
:102470006F915F914F913F912F910F900FBE0F90F1
:102480001F901895DF93CF93CDB7DEB7AFE4B0E0E0
:10249000EFE4F0E080818E7F8C93AFE4B0E0EFE476
:1024A000F0E0808182608C93AEE4B0E0EEE4F0E096
:1024B000808188608C93AEE4B0E0EEE4F0E080814F
:1024C00080618C93AFE4B0E0EFE4F0E080818F7B3B
:1024D0008C93AFE4B0E0EFE4F0E0808180688C930F
:1024E000AEE4B0E0EEE4F0E080818B7F8C93AEE46C
:1024F000B0E0EEE4F0E0808182608C93AEE4B0E086
:10250000EEE4F0E080818E7F8C93CF91DF9108958F
:10251000DF93CF9300D0CDB7DEB79A838983EAE407
:10252000F0E089819A81918380830F900F90CF9101
:10253000DF910895DF93CF9300D0CDB7DEB79A83B4
:102540008983E6E4F0E089819A81918380830F900A
:102550000F90CF91DF910895DF93CF9300D0CDB747
:10256000DEB79A83898389819A81009731F08981C6
:102570009A8190935101809350010F900F90CF91C9
:10258000DF910895DF93CF93CDB7DEB7AD970FB648
:10259000F894DEBF0FBECDBF8BA78BA5282F30E0F0
:1025A0003DA72CA78CA59DA58A35910509F484C06B
:1025B0002CA53DA5243B310509F4F7C08CA59DA5AC
:1025C000009709F06AC1EAE4F0E087EE93E09183B6
:1025D000808380E090E0AAEFB3E48FA398A7A9A737
:1025E000BAA76FA178A589A59AA520E030E04AEFA7
:1025F00054E40E941F02DC01CB018BA39CA3ADA37A
:10260000BEA36BA17CA18DA19EA120E030E040E89B
:102610005FE30E94790388232CF481E090E09AA381
:1026200089A33FC06BA17CA18DA19EA120E03FEFBB
:102630004FE757E40E94190318164CF56FA178A5CF
:1026400089A59AA520E030E040E251E40E941F02F3
:10265000DC01CB01BC01CD010E944900DC01CB01B2
:102660009AA389A30FC088EC90E098A38F8F8F8DD9
:1026700098A10197F1F798A38F8F89A19AA101974B
:102680009AA389A389A19AA1009769F706C16BA1B2
:102690007CA18DA19EA10E944900DC01CB019AA3DF
:1026A00089A389A19AA19E8F8D8F8D8D9E8D019773
:1026B000F1F79E8F8D8FF1C0EAE4F0E08BED95E0AD
:1026C0009183808380E090E0AAEFB3E4898F9A8FB2
:1026D000AB8FBC8F698D7A8D8B8D9C8D20E030E027
:1026E0004AEF54E40E941F02DC01CB018D8B9E8BCC
:1026F000AF8BB88F6D897E898F89988D20E030E00F
:1027000040E85FE30E94790388232CF481E090E0A5
:102710009C8B8B8B3FC06D897E898F89988D20E043
:102720003FEF4FE757E40E94190318164CF5698DE7
:102730007A8D8B8D9C8D20E030E040E251E40E9448
:102740001F02DC01CB01BC01CD010E944900DC016C
:10275000CB019C8B8B8B0FC088EC90E09A8B898B84
:1027600089899A890197F1F79A8B898B8B899C8942
:1027700001979C8B8B8B8B899C89009769F78DC007
:102780006D897E898F89988D0E944900DC01CB017B
:102790009C8B8B8B8B899C89988B8F878F85988955
:1027A0000197F1F7988B8F8778C0EAE4F0E08FEC1F
:1027B00097E09183808380E090E0AAEFB3E48B8779
:1027C0009C87AD87BE876B857C858D859E8520E047
:1027D00030E04AEF54E40E941F02DC01CB018F83FA
:1027E0009887A987BA876F81788589859A8520E03F
:1027F00030E040E85FE30E94790388232CF481E015
:1028000090E09E838D833FC06F81788589859A850E
:1028100020E03FEF4FE757E40E94190318164CF5EC
:102820006B857C858D859E8520E030E040E251E41B
:102830000E941F02DC01CB01BC01CD010E944900B6
:10284000DC01CB019E838D830FC088EC90E09C83DC
:102850008B838B819C810197F1F79C838B838D8186
:102860009E8101979E838D838D819E81009769F75C
:1028700014C06F81788589859A850E944900DC01A2
:10288000CB019E838D838D819E819A8389838981EB
:102890009A810197F1F79A838983AD960FB6F894E0
:1028A000DEBF0FBECDBFCF91DF910895DF93CF93F1
:1028B000CDB7DEB70E948F069093570180935601E3
:1028C000CF91DF9108950F931F93DF93CF93CDB7EF
:1028D000DEB7C75AD0400FB6F894DEBF0FBECDBFEB
:1028E000FE01EF55FF4F1082FE01E356FF4F1182AC
:1028F0001082FE01E556FF4F118210820E944212A3
:102900000E9492110E94A3050E94B6110E94B00C71
:102910000E94490A80E061E00E94550F80E690E045
:102920000E94220F81E061E00E94550F8BE690E04B
:102930000E94220FFE01E956FF4F80E090E8ABE3D2
:10294000B5E480839183A283B3838E010D561F4F1C
:10295000FE01E956FF4F608171818281938120E001
:1029600030E04AEF54E40E941F02DC01CB01F80181
:1029700080839183A283B383FE01ED56FF4F608174
:1029800071818281938120E030E040E85FE30E9422
:102990007903882344F4FE01EF56FF4F81E090E075
:1029A0009183808364C0FE01ED56FF4F6081718189
:1029B0008281938120E03FEF4FE757E40E941903A3
:1029C00018160CF043C0FE01E956FF4F608171817B
:1029D0008281938120E030E040E251E40E941F02B6
:1029E000DC01CB018E010F561F4FBC01CD010E94AF
:1029F0004900DC01CB01F801918380831FC0FE01F7
:102A0000E157FF4F88EC90E091838083FE01E1570E
:102A1000FF4F808191810197F1F7FE01E157FF4F50
:102A200091838083DE01AF56BF4FFE01EF56FF4F0B
:102A300080819181019711969C938E93FE01EF56B0
:102A4000FF4F808191810097D1F627C08E010F56EC
:102A50001F4FFE01ED56FF4F60817181828193818E
:102A60000E944900DC01CB01F80191838083DE01E3
:102A7000A357BF4FFE01EF56FF4F808191818D9389
:102A80009C93FE01E357FF4F808191810197F1F7FD
:102A9000FE01E357FF4F918380830E944B0F86E72F
:102AA00090E00E94220FFE01E757FF4F80E090E088
:102AB000AAE7B4E480839183A283B3838E010B578A
:102AC0001F4FFE01E757FF4F608171818281938123
:102AD00020E030E04AEF54E40E941F02DC01CB0109
:102AE000F80180839183A283B383FE01EB57FF4FEC
:102AF000608171818281938120E030E040E85FE372
:102B00000E947903882344F4FE01ED57FF4F81E0D2
:102B100090E09183808364C0FE01EB57FF4F60819A
:102B200071818281938120E03FEF4FE757E40E945B
:102B3000190318160CF043C0FE01E757FF4F6081E0
:102B400071818281938120E030E040E251E40E9473
:102B50001F02DC01CB018E010D571F4FBC01CD01BF
:102B60000E944900DC01CB01F801918380831FC0E2
:102B7000FE01EF57FF4F88EC90E091838083FE01C8
:102B8000EF57FF4F808191810197F1F7FE01EF57D9
:102B9000FF4F91838083DE01AD57BF4FFE01ED579C
:102BA000FF4F80819181019711969C938E93FE0136
:102BB000ED57FF4F808191810097D1F627C08E019C
:102BC0000D571F4FFE01EB57FF4F608171818281CE
:102BD00093810E944900DC01CB01F801918380833D
:102BE000DE01A158BF4FFE01ED57FF4F808191815B
:102BF0008D939C93FE01E158FF4F80819181019755
:102C0000F1F7FE01E158FF4F918380830E944B0F43
:102C100080E061E00E94550F85E890E00E94220F5D
:102C20008FE19EE40E949A1226E534E184E0B90126
:102C30000E941D068091560190915701CC01A0E0A1
:102C4000B0E028E833E140E050E0BC01CD010E9453
:102C50007D1CDC01CB01072E7AE0B695A7959795F0
:102C600087957A95D1F7702DFE01E356FF4F91833A
:102C700080838E0105561F4FFE01E356FF4F808172
:102C800091812AE030E0B9010E949C1CCB01F8013F
:102C900091838083FE01EC55FF4F108245C00E9456
:102CA000650AFE01ED55FF4F8083FE01ED55FF4F94
:102CB00080818F3F09F1FE01EC55FF4F8081282F65
:102CC00030E0CE018B559F4FDC01A20FB31FFE01F8
:102CD000ED55FF4F80818C93FE01EC55FF4F8081B5
:102CE000282F30E0CE018B559F4FFC01E20FF31FE0
:102CF00080810E94120C0FC0FE01ED55FF4F8081B4
:102D00008F3F49F4DE01AC55BF4FFE01EC55FF4F3C
:102D1000808181508C93DE01AC55BF4FFE01EC5594
:102D2000FF4F80818F5F8C93FE01EC55FF4F8081B8
:102D3000833008F4B4CFFE01E558FF4F80E090E007
:102D4000AAEFB4E480839183A283B3838E010958F0
:102D50001F4FFE01E558FF4F608171818281938191
:102D600020E030E04AEF54E40E941F02DC01CB0176
:102D7000F80180839183A283B383FE01E958FF4F5A
:102D8000608171818281938120E030E040E85FE3DF
:102D90000E947903882344F4FE01EB58FF4F81E041
:102DA00090E09183808364C0FE01E958FF4F608109
:102DB00071818281938120E03FEF4FE757E40E94C9
:102DC000190318160CF043C0FE01E558FF4F60814F
:102DD00071818281938120E030E040E251E40E94E1
:102DE0001F02DC01CB018E010B581F4FBC01CD012E
:102DF0000E944900DC01CB01F801918380831FC050
:102E0000FE01ED58FF4F88EC90E091838083FE0136
:102E1000ED58FF4F808191810197F1F7FE01ED5848
:102E2000FF4F91838083DE01AB58BF4FFE01EB580B
:102E3000FF4F80819181019711969C938E93FE01A3
:102E4000EB58FF4F808191810097D1F628C08E0109
:102E50000B581F4FFE01E958FF4F6081718182813D
:102E600093810E944900DC01CB01F80191838083AA
:102E7000DE01AF58BF4FFE01EB58FF4F80819181BB
:102E800011969C938E93FE01EF58FF4F80819181A4
:102E90000197F1F7FE01EF58FF4F91838083FE0108
:102EA000EB55FF4F8081813309F08DC3FE01EB5557
:102EB000FF4F8181833309F086C3FE01EB55FF4F3D
:102EC0008281833309F07FC30E944B0FFE01E359D7
:102ED000FF4F80E090E0AAE7B4E480839183A2836F
:102EE000B3838E0107591F4FFE01E359FF4F6081E5
:102EF00071818281938120E030E04AEF54E40E94A6
:102F00001F02DC01CB01F80180839183A283B3838C
:102F1000FE01E759FF4F608171818281938120E03A
:102F200030E040E85FE30E947903882344F4FE0127
:102F3000E959FF4F81E090E09183808364C0FE01F6
:102F4000E759FF4F608171818281938120E03FEFDB
:102F50004FE757E40E94190318160CF043C0FE0116
:102F6000E359FF4F608171818281938120E030E0DD
:102F700040E251E40E941F02DC01CB018E0109599D
:102F80001F4FBC01CD010E944900DC01CB01F801BB
:102F9000918380831FC0FE01EB59FF4F88EC90E0C6
:102FA00091838083FE01EB59FF4F808191810197CE
:102FB000F1F7FE01EB59FF4F91838083DE01A959A0
:102FC000BF4FFE01E959FF4F808191810197119612
:102FD0009C938E93FE01E959FF4F80819181009768
:102FE000D1F627C08E0109591F4FFE01E759FF4F47
:102FF00060817181828193810E944900DC01CB0153
:10300000F80191838083DE01AD59BF4FFE01E9597C
:10301000FF4F808191818D939C93FE01ED59FF4F6D
:10302000808191810197F1F7FE01ED59FF4F918366
:1030300080838FE890E00E94220F80E065E041E00D
:103040000E94DB07FE01E15AFF4F80E090E8ABE30E
:10305000B5E480839183A283B3838E01055A1F4F09
:10306000FE01E15AFF4F608171818281938120E0EE
:1030700030E04AEF54E40E941F02DC01CB01F8016A
:1030800080839183A283B383FE01E55AFF4F608161
:1030900071818281938120E030E040E85FE30E940B
:1030A0007903882344F4FE01E75AFF4F81E090E062
:1030B0009183808364C0FE01E55AFF4F6081718176
:1030C0008281938120E03FEF4FE757E40E9419038C
:1030D00018160CF043C0FE01E15AFF4F6081718168
:1030E0008281938120E030E040E251E40E941F029F
:1030F000DC01CB018E01075A1F4FBC01CD010E949C
:103100004900DC01CB01F801918380831FC0FE01DF
:10311000E95AFF4F88EC90E091838083FE01E95AE1
:10312000FF4F808191810197F1F7FE01E95AFF4F2E
:1031300091838083DE01A75ABF4FFE01E75AFF4FFC
:1031400080819181019711969C938E93FE01E75A9D
:10315000FF4F808191810097D1F627C08E01075AD9
:103160001F4FFE01E55AFF4F60817181828193817B
:103170000E944900DC01CB01F80191838083DE01CC
:10318000AB5ABF4FFE01E75AFF4F808191818D936B
:103190009C93FE01EB5AFF4F808191810197F1F7DB
:1031A000FE01EB5AFF4F918380830E944B0F8EE903
:1031B00090E00E94220FFE01EF5AFF4F80E090E85E
:1031C000ABE3B5E480839183A283B3838E01035B79
:1031D0001F4FFE01EF5AFF4F608171818281938101
:1031E00020E030E04AEF54E40E941F02DC01CB01F2
:1031F000F80180839183A283B383FE01E35BFF4FD9
:10320000608171818281938120E030E040E85FE35A
:103210000E947903882344F4FE01E55BFF4F81E0BF
:1032200090E09183808364C0FE01E35BFF4F608187
:1032300071818281938120E03FEF4FE757E40E9444
:10324000190318160CF043C0FE01EF5AFF4F6081BE
:1032500071818281938120E030E040E251E40E945C
:103260001F02DC01CB018E01055B1F4FBC01CD01AC
:103270000E944900DC01CB01F801918380831FC0CB
:10328000FE01E75BFF4F88EC90E091838083FE01B5
:10329000E75BFF4F808191810197F1F7FE01E75BCA
:1032A000FF4F91838083DE01A55BBF4FFE01E55B8D
:1032B000FF4F80819181019711969C938E93FE011F
:1032C000E55BFF4F808191810097D1F627C08E0189
:1032D000055B1F4FFE01E35BFF4F608171818281BF
:1032E00093810E944900DC01CB01F8019183808326
:1032F000DE01A95BBF4FFE01E55BFF4F808191813D
:103300008D939C93FE01E95BFF4F80819181019732
:10331000F1F7FE01E95BFF4F918380830E944B0F21
:1033200086EA90E00E94220FFE01E556FF4F808161
:103330009181CC01A0E0B0E0BC01CD010E94FB1066
:103340008CEA90E00E94220FFE01ED5BFF4F80E0CF
:1033500090E8ABE3B5E480839183A283B3838E01CD
:10336000015C1F4FFE01ED5BFF4F60817181828127
:10337000938120E030E04AEF54E40E941F02DC0118
:10338000CB01F80180839183A283B383FE01FF9672
:10339000608171818281938120E030E040E85FE3C9
:1033A0000E94790388232CF481E090E09EAF8DAFDA
:1033B00046C0FE01FF96608171818281938120E089
:1033C0003FEF4FE757E40E941903181664F5FE011A
:1033D000ED5BFF4F608171818281938120E030E05D
:1033E00040E251E40E941F02DC01CB01BC01CD018F
:1033F0000E944900DC01CB019EAF8DAF0FC088EC6D
:1034000090E09CAF8BAF8BAD9CAD0197F1F79CAF7B
:103410008BAF8DAD9EAD01979EAF8DAF8DAD9EAD47
:10342000009769F716C0FE01FF9660817181828165
:1034300093810E944900DC01CB019EAF8DAF8DAD21
:103440009EAD9AAF89AF89AD9AAD0197F1F79AAF6A
:1034500089AF0E944B0F80ED97E00E94881280EBAD
:1034600090E00E94220F81E060E00E94550F8BEBFC
:1034700090E00E94220FFE01E156FF4F85E080831D
:103480008BC081E06DE00E94550FFE01E156FF4FB9
:103490008081882F90E0A0E0B0E0BC01CD010E94C7
:1034A000FB1080E090E0AAE7B4E48DAB9EABAFAB3D
:1034B000B8AF6DA97EA98FA998AD20E030E04AEFA2
:1034C00054E40E941F02DC01CB0189AB9AABABAB89
:1034D000BCAB69A97AA98BA99CA920E030E040E89F
:1034E0005FE30E94790388232CF481E090E098AB9D
:1034F0008FA73FC069A97AA98BA99CA920E03FEFBB
:103500004FE757E40E94190318164CF56DA97EA9E0
:103510008FA998AD20E030E040E251E40E941F0204
:10352000DC01CB01BC01CD010E944900DC01CB01D3
:1035300098AB8FA70FC088EC90E09EA78DA78DA5B4
:103540009EA50197F1F79EA78DA78FA598A9019732
:1035500098AB8FA78FA598A9009769F714C069A9A0
:103560007AA98BA99CA90E944900DC01CB0198ABE8
:103570008FA78FA598A99CA78BA78BA59CA5019722
:10358000F1F79CA78BA7DE01A156BF4FFE01E156C4
:10359000FF4F808181508C93FE01E156FF4F808167
:1035A000882309F06ECF88EE93E00E94881280E0B5
:1035B00065E040E00E94DB070E944B0F85E890E049
:1035C0000E94220F82C10E944B0F80E090E0AAE788
:1035D000B4E48FA398A7A9A7BAA76FA178A589A5D6
:1035E0009AA520E030E04AEF54E40E941F02DC017B
:1035F000CB018BA39CA3ADA3BEA36BA17CA18DA18A
:103600009EA120E030E040E85FE30E947903882338
:103610002CF481E090E09AA389A33FC06BA17CA128
:103620008DA19EA120E03FEF4FE757E40E941903D0
:1036300018164CF56FA178A589A59AA520E030E071
:1036400040E251E40E941F02DC01CB01BC01CD012C
:103650000E944900DC01CB019AA389A30FC088EC2A
:1036600090E098A38F8F8F8D98A10197F1F798A381
:103670008F8F89A19AA101979AA389A389A19AA161
:10368000009769F714C06BA17CA18DA19EA10E9437
:103690004900DC01CB019AA389A389A19AA19E8F3D
:1036A0008D8F8D8D9E8D0197F1F79E8F8D8F87EC7D
:1036B00090E00E94220FDE01AF55BF4FFE01EF5593
:1036C000FF4F80818F5F8C9380E090E8ABE3B5E49F
:1036D000898F9A8FAB8FBC8F698D7A8D8B8D9C8DE6
:1036E00020E030E04AEF54E40E941F02DC01CB01ED
:1036F0008D8B9E8BAF8BB88F6D897E898F89988DCE
:1037000020E030E040E85FE30E94790388232CF456
:1037100081E090E09C8B8B8B3FC06D897E898F8987
:10372000988D20E03FEF4FE757E40E9419031816E9
:103730004CF5698D7A8D8B8D9C8D20E030E040E2D8
:1037400051E40E941F02DC01CB01BC01CD010E94AB
:103750004900DC01CB019C8B8B8B0FC088EC90E087
:103760009A8B898B89899A890197F1F79A8B898B32
:103770008B899C8901979C8B8B8B8B899C8900976B
:1037800069F714C06D897E898F89988D0E944900E0
:10379000DC01CB019C8B8B8B8B899C89988B8F87D1
:1037A0008F8598890197F1F7988B8F870E944B0F2F
:1037B000FE01EF55FF4F8081823029F486ED90E0C5
:1037C0000E94220F0AC0FE01EF55FF4F8081823018
:1037D00020F48FED90E00E94220F80E090E8ABE3B0
:1037E000B5E48B879C87AD87BE876B857C858D858F
:1037F0009E8520E030E04AEF54E40E941F02DC0185
:10380000CB018F839887A987BA876F81788589854F
:103810009A8520E030E040E85FE30E947903882346
:103820002CF481E090E09E838D833FC06F8178858A
:1038300089859A8520E03FEF4FE757E40E941903FE
:1038400018164CF56B857C858D859E8520E030E0D3
:1038500040E251E40E941F02DC01CB01BC01CD011A
:103860000E944900DC01CB019E838D830FC088EC50
:1038700090E09C838B838B819C810197F1F79C83E3
:103880008B838D819E8101979E838D838D819E8107
:10389000009769F714C06F81788589859A850E94A1
:1038A0004900DC01CB019E838D838D819E819A83AB
:1038B000898389819A810197F1F79A8389830E948C
:1038C0004B0F85E890E00E94220FFE01EF55FF4F5D
:1038D0008081833009F0A8C90E944B0F89EE90E0E7
:1038E0000E94220F80E066E041E00E94DB0780E05A
:1038F00067E041E00E94DB0797C9629FD001739F98
:10390000F001829FE00DF11D649FE00DF11D929F7B
:10391000F00D839FF00D749FF00D659FF00D9927BA
:10392000729FB00DE11DF91F639FB00DE11DF91FDE
:10393000BD01CF0111240895AA1BBB1B51E107C093
:10394000AA1FBB1FA617B70710F0A61BB70B881F2F
:10395000991F5A95A9F780959095BC01CD010895BE
:10396000A1E21A2EAA1BBB1BFD010DC0AA1FBB1F83
:10397000EE1FFF1FA217B307E407F50720F0A21BF5
:10398000B30BE40BF50B661F771F881F991F1A9462
:1039900069F760957095809590959B01AC01BD018C
:1039A000CF0108952F923F924F925F926F927F9234
:1039B0008F929F92AF92BF92CF92DF92EF92FF923F
:1039C0000F931F93CF93DF93CDB7DEB7CA1BDB0BEB
:1039D0000FB6F894DEBF0FBECDBF09942A88398890
:1039E00048885F846E847D848C849B84AA84B98497
:1039F000C884DF80EE80FD800C811B81AA81B981A3
:103A0000CE0FD11D0FB6F894DEBF0FBECDBFED01B6
:103A10000895FB019F01E8944230C4F04532B4F4AC
:103A20004A3029F497FB1EF4909581959F4F642F9F
:103A300077270E949C1C805D8A330CF0895D8193FE
:103A4000CB010097A1F716F45DE251931082C901F2
:103A50000C942A1DDC01FC01672F71917723E1F79B
:103A6000329704C07C916D9370836291AE17BF074B
:083A7000C8F30895F894FFCF9C
:103A780057656C636F6D6520546F004F6D617220E0
:103A8800486F75736500456E746572205061737375
:103A9800776F72640050617373776F72643A005085
:103AA800617373776F726420526967687400576531
:103AB8006C636F6D650054656D703A00202043009B
:103AC800446F6F7220436C6F736500416674657252
:103AD8002035207365630050617373776F726420BB
:103AE80057726F6E67004C6173742054727900547A
:103AF800727920416761696E0042757A7A65722031
:103B0800416C6572746564000000000000000000EC
:103B180004050607000102033132332B3435362DF4
:103B28003738392A303D2F440000010207000000D1
:103B3800110905031F000000000001021F0000001A
:103B48000000000003040810000007051F00000023
:083B5800000001021F00000043
:00000001FF
